S0190000506F73746C61626F7261746F72696F5F362E7372656332
S11300000C9434000C9451000C9451000C94510045
S11300100C9451000C9451000C9451000C94510018
S11300200C9451000C9451000C9451000C94510008
S11300300C9451000C9451000C9451000C945100F8
S11300400C9451000C9451000C94FD000C9451003C
S11300500C9451000C9457010C9451000C945100D1
S11300600C9451000C94510011241FBECFEFD8E022
S1130070DEBFCDBF11E0A0E0B1E0EEE4F3E002C0EA
S113008005900D92AA38B107D9F721E0AAE8B1E0AA
S113009001C01D92A239B207E1F70E94BC000C9482
S11300A0A5010C9400008AB182608AB98AB18E7F5E
S11300B08AB91092C000E1ECF0E080818869808305
S11300C0E2ECF0E080818660808387E690E09093A4
S11300D0C5008093C4000895ECE7F0E010828081AD
S11300E08064808380818062808380818660808355
S11300F0EAE7F0E0108280818360808380818860F9
S113010080838081806880830895F8940E945300DE
S11301100E946C008FEF84B915B88AB180668AB9E1
S11301208BB18F798BB9789408959091C00095FF25
S1130130FCCF8093C60008950F931F93CF938C0137
S1130140C0E003C00E949500CF5FF801EC0FF11DE1
S113015080818111F7CFCF911F910F91089580E095
S113016091E00E949C008BE191E00E949C0083E35B
S113017091E00E949C0008950E948500EAE7F0E067
S113018080818064808380918B01811105C00E94ED
S1130190AF008FEF80938B01809191018133C9F47B
S11301A080918C014AE06DE871E090E00E9470015A
S11301B085E491E00E949C008DE891E00E949C00FF
S11301C088E191E00E949C001092910110928B01B1
S11301D0DACF809191018233B1F68BE591E00E94F0
S11301E09C0081E080938A011092910180918A01A0
S11301F08111FCCF10928B01C6CF1F920F920FB6C4
S11302000F9211242F933F934F935F936F937F9398
S11302108F939F93AF93BF93EF93FF938091C60007
S11302208093910180918A01882391F080919101BA
S113023085B98FE691E00E949C008DE891E00E94D0
S11302409C0088E191E00E949C0010928A0108C001
S1130250809191010E94950088E191E00E949C00A8
S11302608091910186FF04C08BB180648BB903C077
S11302708BB18F7B8BB980919101882324F48BB14E
S113028080688BB903C08BB18F778BB9FF91EF91E5
S1130290BF91AF919F918F917F916F915F914F919A
S11302A03F912F910F900FBE0F901F9018951F92A2
S11302B00F920FB60F9211248F93EF93FF938091B7
S11302C0790080938C01EAE7F0E080818064808388
S11302D0FF91EF918F910F900FBE0F901F90189583
S11302E0BB274A3031F4992322F4BDE290958195DD
S11302F09F4F0C947C01BB27FB015527AA27880F2D
S1130300991FAA1FA41710F0A41B83955051B9F785
S1130310A05DAA3308F0A95DA193009779F7B11104
S1130320B1931192CB010C949501DC01FC01672F70
S113033071917723E1F7329704C07C916D937083B8
S11103406291AE17BF07C8F30895F894FFCF7B
S113034E0A0D53656C656363696F6E6520756E6126
S113035E206F7063696F6E3A0A0D00312E204C6562
S113036E657220706F74656E63696F6D6574726FFC
S113037E0A0D00322E20456E766961722041736338
S113038E69690A0D0056616C6F7220506F74656E48
S113039E63696F6D6574726F3A2000696E6772657A
S11303AE736520656C20636172E163746572000A83
S11303BE0D4C4544732061637475616C697A616494
S10D03CE6F7320636F6E3A20000085
S9030000FC
