S01800005072656C61626F7261746F72696F5F362E73726563B2
S11300000C9434000C943E000C943E000C943E007E
S11300100C943E000C943E000C943E000C943E0064
S11300200C943E000C943E000C943E000C943E0054
S11300300C943E000C943E000C943E000C943E0044
S11300400C943E000C943E000C947D000C943E00F5
S11300500C943E000C943E000C943E000C943E0024
S11300600C943E000C943E0011241FBECFEFD8E048
S1130070DEBFCDBF0E946E000C94B9000C9400004A
S11300808AB182608AB98AB18E7F8AB91092C0001F
S1130090E1ECF0E0808188698083E2ECF0E080812B
S11300A08660808387E690E09093C5008093C400C7
S11300B00895F8940E9440008FEF84B915B88AB16E
S11300C080668AB98BB18F798BB9789408959091B1
S11300D0C00095FFFCCF8093C60008950E9459008C
S11300E088E40E9467008FE40E9467008CE40E9409
S11300F0670081E40E946700FFCF1F920F920FB642
S11301000F9211242F933F934F935F936F937F9399
S11301108F939F93AF93BF93CF93EF93FF93C0912C
S1130120C6008C2F0E946700C5B9C6FF04C08BB1FE
S113013080648BB903C08BB18F7B8BB9CC2324F43F
S11301408BB180688BB903C08BB18F778BB9FF916A
S1130150EF91CF91BF91AF919F918F917F916F91CB
S11301605F914F913F912F910F900FBE0F901F9071
S10901701895F894FFCF7E
S9030000FC
