S00D00004C61625F362E7372656373
S11300000C9434000C9449000C9449000C9449005D
S11300100C9449000C9449000C9449000C94490038
S11300200C9449000C9449000C9449000C94490028
S11300300C9449000C9449000C9449000C94490018
S11300400C9449000C9449000C9493000C944900BE
S11300500C9449000C9449000C9449000C944900F8
S11300600C9449000C94490011241FBECFEFD8E032
S1130070DEBFCDBF11E0A0E0B1E0E2EAF1E002C0F2
S113008005900D92A630B107D9F70E948C000C940C
S1130090CF000C9400008AB182608AB98AB18E7F45
S11300A08AB91092C000E1ECF0E080818869808315
S11300B0E2ECF0E080818660808387E690E09093B4
S11300C0C5008093C4000895F8940E944B008FEFFC
S11300D084B915B88AB180668AB98BB18F798BB926
S11300E0789408959091C00095FFFCCF8093C6004A
S11300F008950F931F93CF938C01C0E003C00E9417
S11301007200CF5FF801EC0FF11D80818111F7CFF0
S1130110CF911F910F9108950E94640080E091E0B7
S11301200E947900FFCF1F920F920FB60F921124F5
S11301302F933F934F935F936F937F938F939F93EB
S1130140AF93BF93CF93EF93FF93C091C6008C2FCF
S11301500E947200C5B9C6FF04C08BB180648BB91C
S113016003C08BB18F7B8BB9CC2324F48BB1806813
S11301708BB903C08BB18F778BB9FF91EF91CF917E
S1130180BF91AF919F918F917F916F915F914F91AB
S11301903F912F910F900FBE0F901F901895F894D8
S10501A0FFCF8B
S10901A2686F6C610000AF
S9030000FC
